S01700006C6576656C5F696E64696361746F722E73726563D9
S113000019C033C032C031C030C02FC02EC02DC083
S11300102CC02BC02AC029C028C027C026C025C098
S113002024C023C022C021C020C01FC01EC01DC0C8
S11300301CC01BC011241FBECFEFCDBFDFE3DEBF4A
S11300401EE3A0E0BEE3E0E4FDE002C005900D92F3
S1130050A230B107D9F72EE3A2E0BEE301C01D929E
S1130060A732B207E1F73BD369C6CACFFC0121E04E
S113007030E002C0220F331F4A95E2F791B1822F7C
S11300808095982381B191B936ED3A95F1F7282BF3
S113009070E0AB01440F551FDA01A60FB71F87E0CC
S11300A087E001900000000091B9000C21B908F02C
S11300B091B98150B9F7000C40F487E091B9000080
S11300C021B91197019079F708C091B987E021B956
S11300D0000091B91197019041F791B9089521E079
S11300E030E088ED84BF209361000895E0EAF0E0F9
S11300F080E38083818182608183E0E0F6E0108286
S113010083E08183128282838683818581608187F3
S11301108081816080830895E0E0F4E080E182835F
S1130120A0E2B4E082E012968C93129791E01296CA
S11301309C938183089541E066E08EE09EE396DF20
S11301400895E0E0F6E0908590FDFDCFE0E0F6E074
S11301508683808581608087808580FDFDCF809146
S11301601006909111069695879596958795969584
S1130170879508954F925F926F927F928F929F928C
S1130180AF92BF92CF92DF92EF92FF920F931F93A1
S1130190CF93DF9300D000D0CDB7DEB74B015C0125
S11301A029013A01E982FA820B831C83A801970191
S11301B0C801B7011AD320E030E040E85FE314D36C
S11301C09B01AC015F7760E070E080E89FE30CD3B3
S11301D0A301920135D56B017C0120E030E040E7BA
S11301E052E4C501B40172D320E030E040E050E4B1
S11301F056D420E030E040E85FE3F6D29B01AC0146
S11302005F7760E070E080E89FE3EED2A70196019B
S113021017D52B013C0120E030E0A901C501B40150
S11302200AD588230CF120E030E040E752E4C50110
S1130230B40147D38823C4F4C0920A3ED0920B3E43
S1130240E0920C3EF0920D3E4092063E5092073EE4
S11302506092083E7092093E1092023E1092033E54
S11302601092043E1092053E20E030E040E752E454
S1130270C501B401E0D488230CF120E030E040EF64
S113028052E4C501B4011DD38823C4F440920A3E4C
S113029050920B3E60920C3E70920D3EC092063E10
S11302A0D092073EE092083EF092093E1092023E40
S11302B01092033E1092043E1092053E20E030E07E
S11302C040EF52E4C501B401B6D488230CF120E018
S11302D030E044E353E4C501B401F3D28823C4F409
S11302E010920A3E10920B3E10920C3E10920D3E5C
S11302F0C092063ED092073EE092083EF092093E3C
S11303004092023E5092033E6092043E7092053E3B
S113031020E030E044E353E4C501B4018CD48823E5
S11303200CF120E030E040E753E4C501B401C9D248
S11303308823C4F410920A3E10920B3E10920C3E95
S113034010920D3E4092063E5092073E6092083E47
S11303507092093EC092023ED092033EE092043E67
S1130360F092053E20E030E040E753E4C501B401DB
S113037062D488230CF120E030E046E953E4C5015F
S1130380B4019FD28823C4F440920A3E50920B3E9B
S113039060920C3E70920D3E1092063E1092073E03
S11303A01092083E1092093EC092023ED092033E43
S11303B0E092043EF092053E20E030E046E953E44A
S11303C0C501B40138D488230CF120E030E044EBBB
S11303D053E4C501B40175D28823C4F4C0920A3E23
S11303E0D0920B3EE0920C3EF0920D3E1092063EEF
S11303F01092073E1092083E1092093E4092023E2F
S11304005092033E6092043E7092053E20E030E03C
S113041040E05FE3C701B60113D49B01AC016981DD
S11304207A818B819C81E0D16B017C0120910A3E11
S113043030910B3E40910C3E50910D3ED6D120E0C0
S113044030E04FE753E4FCD360930A3E70930B3ED5
S113045080930C3E90930D3E2091063E3091073ED2
S11304604091083E5091093EC701B601BED120E03B
S113047030E04FE753E4E4D36093063E7093073EC5
S11304808093083E9093093E2091023E3091033EB2
S11304904091043E5091053EC701B601A6D120E02B
S11304A030E04FE753E4CCD36093023E7093033EB5
S11304B08093043E9093053E2496CDBFDEBFDF912A
S11304C0CF911F910F91FF90EF90DF90CF90BF904D
S11304D0AF909F908F907F906F905F904F90089512
S11304E04F925F926F927F928F929F92AF92BF9240
S11304F0CF92DF92EF92FF920F931F93CF93DF93EC
S1130500CDB7DEB72597CDBFDEBF19821A821B8215
S11305101C821D826091213E7091223EA090253E56
S1130520B090263EC090233ED090243EE090253EDD
S1130530F090263E80E090E06AD22B013C01B501A8
S113054080E090E064D29B01AC01C301B2014CD1C4
S11305504B015C01B60180E090E059D22B013C01D3
S1130560B70180E090E053D29B01AC01C301B2011A
S11305703BD19B01AC01C501B401A8D16B017C0145
S11305809B01AC01CAD381111CC026E636E646E6BF
S11305905FE3C701B6014FD3181654F480E090E02E
S11305A0A0E7B3E48A839B83AC83BD8386E089831D
S11305B020E030E0A901C701B60183D1181674F018
S11305C003C0C12CD12C760180E090E8A1EBB3E408
S11305D08A839B83AC83BD8386E0898320E030E0FB
S11305E0A901C701B60127D31816F4F426E636E6A6
S11305F046E65FE3C701B60164D11816ACF020E00B
S113060030E040EF52E4C701B6011AD36A837B831A
S11306108C839D8320E030E040EC50E4C701B601B8
S11306200FD3C6D16F5F69838A809B80AC80BD8005
S11306306091003E70E080E090E0E9D120E030E09D
S11306404FE753E443D17B018C0120E030E040E8E4
S11306505FE3C501B4018EDD60910A3E70910B3EEB
S113066080910C3E90910D3EA3D1E62E6091063E02
S11306707091073E8091083E9091093E99D1F62EE3
S11306806091023E7091033E8091043E9091053E3C
S11306908FD1EEE0FEE380E09981891720F4E182B6
S11306A0F082628303C01182108212828F5F3396BC
S11306B0863091F740DD2596CDBFDEBFDF91CF9127
S11306C01F910F91FF90EF90DF90CF90BF90AF906C
S11306D09F908F907F906F905F904F900895FFDC74
S11306E005DD1ADD11E0C091253ED091263E8AE059
S11306F028DD9E01220F331F220F331F220F331FC9
S1130700C20FD31F9E01280F391FADECBCEC0AD3D6
S11307109695879596958795969587952091253EEC
S11307203091263E8217930731F08093253E9093B3
S1130730263E1093203EC091233ED091243E8BE070
S113074000DD9E01220F331F220F331F220F331FA0
S1130750C20FD31F9E01280F391FADECBCECE2D2AF
S11307609695879596958795969587952091233E9E
S11307703091243E8217930731F08093233E909367
S1130780243E1093203EC091213ED091223E84E02D
S1130790D8DC9E01220F331F220F331F220F331F79
S11307A0C20FD31F9E01280F391FADECBCECBAD287
S11307B09695879596958795969587952091213E50
S11307C03091223E8217930731F08093213E90931B
S11307D0223E1093203E8091203E882309F483CF4B
S11307E07FDE1092203E7FCF5058BB27AA270E945D
S11307F00C040C94E1050E94D30538F00E94DA053C
S113080020F039F49F3F19F426F40C94D0050EF42B
S1130810E095E7FB0C94BC05E92F0E94F20558F320
S1130820BA17620773078407950720F079F4A6F5D1
S11308300C9414060EF4E0950B2EBA2FA02D0B0188
S1130840B90190010C01CA01A0011124FF27591B11
S113085099F0593F50F4503E68F11A16F040A22F17
S1130860232F342F4427585FF3CF46953795279588
S1130870A795F0405395C9F77EF41F16BA0B620B87
S1130880730B840BBAF09150A1F0FF0FBB1F661FCE
S1130890771F881FC2F70EC0BA0F621F731F841F11
S11308A048F4879577956795B795F7959E3F08F037
S11308B0B0CF9395880F08F09927EE0F97958795F9
S11308C008950E94980508F481E008950E947A042E
S11308D00C94E1050E94DA0558F00E94D30540F01B
S11308E029F45F3F29F00C94BC0551110C941506B2
S11308F00C94D0050E94F20568F39923B1F35523B3
S113090091F3951B550BBB27AA276217730784071E
S113091038F09F5F5F4F220F331F441FAA1FA9F3B4
S113092035D00E2E3AF0E0E832D091505040E695A2
S1130930001CCAF72BD0FE2F29D0660F771F881F03
S1130940BB1F261737074807AB07B0E809F0BB0BF6
S1130950802DBF01FF2793585F4F3AF09E3F51050A
S113096078F00C94BC050C9415065F3FE4F3983EB4
S1130970D4F3869577956795B795F7959F5FC9F7F3
S1130980880F911D9695879597F90895E1E0660F74
S1130990771F881FBB1F621773078407BA0720F0ED
S11309A0621B730B840BBA0BEE1F88F7E095089556
S11309B00E94FA0588F09F5798F0B92F9927B751EC
S11309C0B0F0E1F0660F771F881F991F1AF0BA95EF
S11309D0C9F714C0B13091F00E941406B1E0089533
S11309E00C941406672F782F8827B85F39F0B93F25
S11309F0CCF3869577956795B395D9F73EF49095A2
S1130A008095709561957F4F8F4F9F4F0895E8941F
S1130A1009C097FB3EF490958095709561957F4F42
S1130A208F4F9F4F9923A9F0F92F96E9BB279395F0
S1130A30F695879577956795B795F111F8CFFAF400
S1130A40BB0F11F460FF1BC06F5F7F4F8F4F9F4F31
S1130A5016C0882311F096E911C0772321F09EE88F
S1130A60872F762F05C0662371F096E8862F70E0F5
S1130A7060E02AF09A95660F771F881FDAF7880FCF
S1130A809695879597F908950E94D30520F019F05B
S1130A900E94DA0550F40C94D0050C941506E92F45
S1130AA00E94F20588F35523B1F3E7FB621773073D
S1130AB084079507A8F189F3E92FFF2788232AF0F3
S1130AC03197660F771F881FDAF7952F5527442330
S1130AD032F091505040220F331F441FD2F7BB27EE
S1130AE0E91BF50B621B730B840BB109B1F222F401
S1130AF0620F731F841FB11D31972AF0660F771F91
S1130B00881FBB1FEFCF9150504062F041F0882303
S1130B1032F0660F771F881F91505040C1F79395AC
S1130B200C94C2058695779567959F5FD9F7F7CFA3
S1130B30990F0008550FAA0BE0E8FEEF16161706EA
S1130B40E807F907C0F012161306E407F50798F052
S1130B50621B730B840B950B39F40A2661F0232B6B
S1130B60242B252B21F408950A2609F4A140A695E7
S1130B708FEF811D811D089597F99F6780E870E0CC
S1130B8060E008959F3F31F0915020F48795779568
S1130B906795B795880F911D9695879597F9089550
S1130BA09FEF80EC089500240A9416161706180681
S1130BB00906089500240A9412161306140605065D
S1130BC00895092E0394000C11F4882352F0BB0FEE
S1130BD040F4BF2B11F460FF04C06F5F7F4F8F4F51
S1130BE09F4F089557FD9058440F551F59F05F3F8C
S1130BF071F04795880F97FB991F61F09F3F79F03B
S1130C0087950895121613061406551FF2CF4695BC
S1130C10F1DF08C0161617061806991FF1CF86953E
S1130C207105610508940895E894BB276627772722
S1130C30CB0197F908950E94980508F48FEF089561
S1130C400E9433060C94E1050E94D30538F00E94FB
S1130C50DA0520F0952311F00C94BC050C94D00512
S1130C6011240C9415060E94F20570F3959FC1F3AC
S1130C70950F50E0551F629FF001729FBB27F00D46
S1130C80B11D639FAA27F00DB11DAA1F649F66279B
S1130C90B00DA11D661F829F2227B00DA11D621FEA
S1130CA0739FB00DA11D621F839FA00D611D221FA4
S1130CB0749F3327A00D611D231F849F600D211D88
S1130CC0822F762F6A2F11249F5750409AF0F1F00B
S1130CD088234AF0EE0FFF1FBB1F661F771F881F74
S1130CE091505040A9F79E3F510580F00C94BC05EB
S1130CF00C9415065F3FE4F3983ED4F386957795FC
S1130D006795B795F795E7959F5FC1F7FE2B880F19
S1130D10911D9695879597F908950E949805880BDB
S1130D20990B0895A29FB001B39FC001A39F01D066
S1130D30B29F700D811D1124911D0895F894FFCF69
S1050D40140099
S9030000FC
